:100000000C942A000C9434000C9434000C943400AA
:100010000C9434000C9434000C9434000C94340090
:100020000C9434000C9434000C9434000C94340080
:100030000C9434000C9434000C9434000C94340070
:100040000C9434000C9434000C9434000C94340060
:100050000C94340011241FBECFE5D4E0DEBFCDBF29
:100060000E9436000C94C1000C9400000E944300D2
:1000700081E690E00E949B0080E090E00E94B30047
:100080000E94A800F3CF8FEF84BB83E081BB87E899
:1000900093E10197F1F700C0000090E395BB81E088
:1000A00082BB12BAEBEDF5E03197F1F700C000002A
:1000B00095BB82BB12BAE9EFF0E03197F1F700C0CF
:1000C000000095BB82BB12BAE7EEF3E03197F1F77F
:1000D00000C0000095BB82BB12BAE7EEF3E0319797
:1000E000F1F700C0000098E095BB82BB12BAE7EEC2
:1000F000F3E03197F1F700C0000085BB82BB12BA74
:10010000E7EEF3E03197F1F700C0000096E095BB11
:1001100082BB12BAE7EEF3E03197F1F700C00000BE
:100120009CE095BB82BB12BA87EE93E00197F1F792
:1001300000C00000089585BB83E082BB82E082BBE3
:1001400012BA87EE93E00197F1F700C0000008951E
:1001500081E085BB82BB12BA87EE93E00197F1F78D
:1001600000C000000895805D85BB83E082BB82E013
:1001700082BB12BA87EE93E00197F1F700C000004E
:060180000895F894FFCF82
:00000001FF
